{
  "contractName": "Escrow",
  "abi": [
    {
      "constant": true,
      "inputs": [],
      "name": "seller",
      "outputs": [
        {
          "name": "",
          "type": "address"
        }
      ],
      "payable": false,
      "stateMutability": "view",
      "type": "function"
    },
    {
      "constant": true,
      "inputs": [],
      "name": "buyerOk",
      "outputs": [
        {
          "name": "",
          "type": "bool"
        }
      ],
      "payable": false,
      "stateMutability": "view",
      "type": "function"
    },
    {
      "constant": true,
      "inputs": [],
      "name": "buyer",
      "outputs": [
        {
          "name": "",
          "type": "address"
        }
      ],
      "payable": false,
      "stateMutability": "view",
      "type": "function"
    },
    {
      "constant": true,
      "inputs": [],
      "name": "sellerOk",
      "outputs": [
        {
          "name": "",
          "type": "bool"
        }
      ],
      "payable": false,
      "stateMutability": "view",
      "type": "function"
    },
    {
      "inputs": [
        {
          "name": "_seller",
          "type": "address"
        }
      ],
      "payable": true,
      "stateMutability": "payable",
      "type": "constructor"
    },
    {
      "constant": false,
      "inputs": [
        {
          "name": "_accepted",
          "type": "bool"
        }
      ],
      "name": "confirm",
      "outputs": [],
      "payable": false,
      "stateMutability": "nonpayable",
      "type": "function"
    }
  ],
  "bytecode": "0x60606040526000600160146101000a81548160ff0219169083151502179055506000600160156101000a81548160ff02191690831515021790555060006002556040516020806104a383398101604052808051906020019091905050600073ffffffffffffffffffffffffffffffffffffffff168173ffffffffffffffffffffffffffffffffffffffff161415151561009757600080fd5b336000806101000a81548173ffffffffffffffffffffffffffffffffffffffff021916908373ffffffffffffffffffffffffffffffffffffffff16021790555080600160006101000a81548173ffffffffffffffffffffffffffffffffffffffff021916908373ffffffffffffffffffffffffffffffffffffffff16021790555042600281905550506103748061012f6000396000f30060606040526004361061006d576000357c0100000000000000000000000000000000000000000000000000000000900463ffffffff16806308551a531461007257806353496a75146100c75780637150d8ae146100f4578063812d080d14610149578063c5b0e6fb1461016e575b600080fd5b341561007d57600080fd5b61008561019b565b604051808273ffffffffffffffffffffffffffffffffffffffff1673ffffffffffffffffffffffffffffffffffffffff16815260200191505060405180910390f35b34156100d257600080fd5b6100da6101c1565b604051808215151515815260200191505060405180910390f35b34156100ff57600080fd5b6101076101d4565b604051808273ffffffffffffffffffffffffffffffffffffffff1673ffffffffffffffffffffffffffffffffffffffff16815260200191505060405180910390f35b341561015457600080fd5b61016c600480803515159060200190919050506101f9565b005b341561017957600080fd5b610181610335565b604051808215151515815260200191505060405180910390f35b600160009054906101000a900473ffffffffffffffffffffffffffffffffffffffff1681565b600160149054906101000a900460ff1681565b6000809054906101000a900473ffffffffffffffffffffffffffffffffffffffff1681565b80151561023a576000809054906101000a900473ffffffffffffffffffffffffffffffffffffffff1673ffffffffffffffffffffffffffffffffffffffff16ff5b600160009054906101000a900473ffffffffffffffffffffffffffffffffffffffff1673ffffffffffffffffffffffffffffffffffffffff163373ffffffffffffffffffffffffffffffffffffffff1614156102af5780600160156101000a81548160ff0219169083151502179055506102ca565b80600160146101000a81548160ff0219169083151502179055505b600160159054906101000a900460ff1680156102f25750600160149054906101000a900460ff165b1561033257600160009054906101000a900473ffffffffffffffffffffffffffffffffffffffff1673ffffffffffffffffffffffffffffffffffffffff16ff5b50565b600160159054906101000a900460ff16815600a165627a7a72305820da1ed4fbeb3d6473896d56cf69d64a24b0b7d81fb8a03e023b82564d1366dea90029",
  "source": "pragma solidity ^0.4.17;\n\n\ncontract Escrow {\n    address public buyer;\n    address public seller;\n    bool public buyerOk = false;\n    bool public sellerOk = false;\n    uint createdAt = 0;\n\n    function Escrow(address _seller) public payable {\n        require(_seller != address(0));\n\n        buyer = msg.sender;\n        seller = _seller;\n        createdAt = now;\n    }\n\n    function confirm(bool _accepted) public {\n        // require(msg.sender == buyer || msg.sender == seller);\n\n        if (!_accepted) {\n            selfdestruct(buyer);\n        } else {\n            if (msg.sender == seller) {\n                sellerOk = _accepted;\n            } else {\n                buyerOk = _accepted;\n            }\n        }\n\n        if (sellerOk && buyerOk) {\n            selfdestruct(seller);\n        }\n    }\n}\n\n\ncontract Store {\n    // PROPERTIES\n    string[3] public productStatus = [\"Unsold\", \"Sold\", \"Buying\"];\n\n    uint public index;\n\n    // Mapping seller to their products - 1 to many\n    mapping (address => mapping (uint => Product)) stores;\n    // Mapping product to seller - 1 to 1\n    mapping (uint => address) productIdInStore;\n\n    struct Product {\n        uint id;\n        string name;\n        string cat;\n        string img;\n        string des;\n        uint price;\n        string status;\n    }\n\n    event EscrowCreated(address newAddress);\n\n    // CONSTRUCTOR\n    function Store() public {\n        index = 0;\n    }\n\n    // FUNCTIONS\n    function addProduct(string _n, string _c, string _i, string _d, uint _p) public {\n        index++;\n        Product memory product = Product(index, _n, _c, _i, _d, _p, productStatus[0]);\n        stores[msg.sender][index] = product;\n        productIdInStore[index] = msg.sender;\n    }\n\n    function getProduct(uint _id) public view returns (uint, string, string, string, string, uint, string) {\n        address store = productIdInStore[_id];\n        Product memory p = stores[store][_id];\n\n        return (p.id, p.name, p.cat, p.img, p.des, p.price, p.status);\n    }\n\n    function getIndex() public view returns (uint) {\n        return index;\n    }\n\n    function changeStatusOfProduct(uint _id, uint _status) public {\n        address store = productIdInStore[_id];\n        Product p = stores[store][_id];\n\n        p.status = productStatus[_status];\n    }\n\n    // ESCROW FUNCTIONS\n    function createEscrow() public payable {\n        address addr = address((new Escrow).value(msg.value)(0x5aeda56215b167893e80b4fe645ba6d5bab767de));\n        EscrowCreated(addr);\n    }\n}",
  "sourcePath": "D:\\Programming\\Blockchain\\Week2\\Homework\\contracts\\Store.sol",
  "compiler": {
    "name": "solc",
    "version": "0.4.19+commit.c4cbbb05.Emscripten.clang"
  },
  "schemaVersion": "2.0.0",
  "updatedAt": "2018-03-25T04:27:28.293Z"
}