{
  "contractName": "Store",
  "abi": [
    {
      "constant": true,
      "inputs": [
        {
          "name": "",
          "type": "uint256"
        }
      ],
      "name": "productStatus",
      "outputs": [
        {
          "name": "",
          "type": "string"
        }
      ],
      "payable": false,
      "stateMutability": "view",
      "type": "function"
    },
    {
      "constant": true,
      "inputs": [],
      "name": "index",
      "outputs": [
        {
          "name": "",
          "type": "uint256"
        }
      ],
      "payable": false,
      "stateMutability": "view",
      "type": "function"
    },
    {
      "inputs": [],
      "payable": false,
      "stateMutability": "nonpayable",
      "type": "constructor"
    },
    {
      "anonymous": false,
      "inputs": [
        {
          "indexed": false,
          "name": "newAddress",
          "type": "address"
        }
      ],
      "name": "EscrowCreated",
      "type": "event"
    },
    {
      "constant": false,
      "inputs": [
        {
          "name": "_n",
          "type": "string"
        },
        {
          "name": "_c",
          "type": "string"
        },
        {
          "name": "_i",
          "type": "string"
        },
        {
          "name": "_d",
          "type": "string"
        },
        {
          "name": "_p",
          "type": "uint256"
        }
      ],
      "name": "addProduct",
      "outputs": [],
      "payable": false,
      "stateMutability": "nonpayable",
      "type": "function"
    },
    {
      "constant": true,
      "inputs": [
        {
          "name": "_id",
          "type": "uint256"
        }
      ],
      "name": "getProduct",
      "outputs": [
        {
          "name": "",
          "type": "uint256"
        },
        {
          "name": "",
          "type": "string"
        },
        {
          "name": "",
          "type": "string"
        },
        {
          "name": "",
          "type": "string"
        },
        {
          "name": "",
          "type": "string"
        },
        {
          "name": "",
          "type": "uint256"
        },
        {
          "name": "",
          "type": "string"
        }
      ],
      "payable": false,
      "stateMutability": "view",
      "type": "function"
    },
    {
      "constant": true,
      "inputs": [],
      "name": "getIndex",
      "outputs": [
        {
          "name": "",
          "type": "uint256"
        }
      ],
      "payable": false,
      "stateMutability": "view",
      "type": "function"
    },
    {
      "constant": false,
      "inputs": [
        {
          "name": "_id",
          "type": "uint256"
        },
        {
          "name": "_status",
          "type": "uint256"
        }
      ],
      "name": "changeStatusOfProduct",
      "outputs": [],
      "payable": false,
      "stateMutability": "nonpayable",
      "type": "function"
    },
    {
      "constant": false,
      "inputs": [],
      "name": "createEscrow",
      "outputs": [],
      "payable": true,
      "stateMutability": "payable",
      "type": "function"
    }
  ],
  "bytecode": "0x60606040526060604051908101604052806040805190810160405280600681526020017f556e736f6c64000000000000000000000000000000000000000000000000000081525081526020016040805190810160405280600481526020017f536f6c640000000000000000000000000000000000000000000000000000000081525081526020016040805190810160405280600681526020017f427579696e6700000000000000000000000000000000000000000000000000008152508152506000906003620000d1929190620000ec565b503415620000de57600080fd5b600060038190555062000272565b826003810192821562000133579160200282015b82811115620001325782518290805190602001906200012192919062000146565b509160200191906001019062000100565b5b509050620001429190620001cd565b5090565b828054600181600116156101000203166002900490600052602060002090601f016020900481019282601f106200018957805160ff1916838001178555620001ba565b82800160010185558215620001ba579182015b82811115620001b95782518255916020019190600101906200019c565b5b509050620001c99190620001fe565b5090565b620001fb91905b80821115620001f75760008181620001ed919062000226565b50600101620001d4565b5090565b90565b6200022391905b808211156200021f57600081600090555060010162000205565b5090565b90565b50805460018160011615610100020316600290046000825580601f106200024e57506200026f565b601f0160209004906000526020600020908101906200026e9190620001fe565b5b50565b6114b080620002826000396000f300606060405260043610610083576000357c0100000000000000000000000000000000000000000000000000000000900463ffffffff1680630ea3d3ee1461008857806325dfbfba146101245780632986c0e514610253578063560a8d621461027c57806381045ead14610286578063b9db15b4146102af578063dce8e6af14610509575b600080fd5b341561009357600080fd5b6100a96004808035906020019091905050610535565b6040518080602001828103825283818151815260200191508051906020019080838360005b838110156100e95780820151818401526020810190506100ce565b50505050905090810190601f1680156101165780820380516001836020036101000a031916815260200191505b509250505060405180910390f35b341561012f57600080fd5b610251600480803590602001908201803590602001908080601f0160208091040260200160405190810160405280939291908181526020018383808284378201915050505050509190803590602001908201803590602001908080601f0160208091040260200160405190810160405280939291908181526020018383808284378201915050505050509190803590602001908201803590602001908080601f0160208091040260200160405190810160405280939291908181526020018383808284378201915050505050509190803590602001908201803590602001908080601f016020809104026020016040519081016040528093929190818152602001838380828437820191505050505050919080359060200190919050506105e7565b005b341561025e57600080fd5b610266610838565b6040518082815260200191505060405180910390f35b61028461083e565b005b341561029157600080fd5b6102996108fd565b6040518082815260200191505060405180910390f35b34156102ba57600080fd5b6102d06004808035906020019091905050610907565b60405180888152602001806020018060200180602001806020018781526020018060200186810386528c818151815260200191508051906020019080838360005b8381101561032c578082015181840152602081019050610311565b50505050905090810190601f1680156103595780820380516001836020036101000a031916815260200191505b5086810385528b818151815260200191508051906020019080838360005b83811015610392578082015181840152602081019050610377565b50505050905090810190601f1680156103bf5780820380516001836020036101000a031916815260200191505b5086810384528a818151815260200191508051906020019080838360005b838110156103f85780820151818401526020810190506103dd565b50505050905090810190601f1680156104255780820380516001836020036101000a031916815260200191505b50868103835289818151815260200191508051906020019080838360005b8381101561045e578082015181840152602081019050610443565b50505050905090810190601f16801561048b5780820380516001836020036101000a031916815260200191505b50868103825287818151815260200191508051906020019080838360005b838110156104c45780820151818401526020810190506104a9565b50505050905090810190601f1680156104f15780820380516001836020036101000a031916815260200191505b509c5050505050505050505050505060405180910390f35b341561051457600080fd5b6105336004808035906020019091908035906020019091905050610d5c565b005b60008160038110151561054457fe5b016000915090508054600181600116156101000203166002900480601f0160208091040260200160405190810160405280929190818152602001828054600181600116156101000203166002900480156105df5780601f106105b4576101008083540402835291602001916105df565b820191906000526020600020905b8154815290600101906020018083116105c257829003601f168201915b505050505081565b6105ef610e21565b60036000815480929190600101919050555060e060405190810160405280600354815260200187815260200186815260200185815260200184815260200183815260200160008060038110151561064257fe5b018054600181600116156101000203166002900480601f0160208091040260200160405190810160405280929190818152602001828054600181600116156101000203166002900480156106d75780601f106106ac576101008083540402835291602001916106d7565b820191906000526020600020905b8154815290600101906020018083116106ba57829003601f168201915b5050505050815250905080600460003373ffffffffffffffffffffffffffffffffffffffff1673ffffffffffffffffffffffffffffffffffffffff1681526020019081526020016000206000600354815260200190815260200160002060008201518160000155602082015181600101908051906020019061075a929190610e7d565b506040820151816002019080519060200190610777929190610e7d565b506060820151816003019080519060200190610794929190610e7d565b5060808201518160040190805190602001906107b1929190610e7d565b5060a0820151816005015560c08201518160060190805190602001906107d8929190610e7d565b509050503360056000600354815260200190815260200160002060006101000a81548173ffffffffffffffffffffffffffffffffffffffff021916908373ffffffffffffffffffffffffffffffffffffffff160217905550505050505050565b60035481565b600034735aeda56215b167893e80b4fe645ba6d5bab767de61085e610efd565b808273ffffffffffffffffffffffffffffffffffffffff1681526020019150506040518091039082f080151561089357600080fd5b905090507fdc172423e65e4eb718110c42ad3b66ac4b0a613e4d07bfb55f2477f2d1bf34eb81604051808273ffffffffffffffffffffffffffffffffffffffff1673ffffffffffffffffffffffffffffffffffffffff16815260200191505060405180910390a150565b6000600354905090565b6000610911610f0d565b610919610f0d565b610921610f0d565b610929610f0d565b6000610933610f0d565b600061093d610e21565b600560008b815260200190815260200160002060009054906101000a900473ffffffffffffffffffffffffffffffffffffffff169150600460008373ffffffffffffffffffffffffffffffffffffffff1673ffffffffffffffffffffffffffffffffffffffff16815260200190815260200160002060008b815260200190815260200160002060e0604051908101604052908160008201548152602001600182018054600181600116156101000203166002900480601f016020809104026020016040519081016040528092919081815260200182805460018160011615610100020316600290048015610a725780601f10610a4757610100808354040283529160200191610a72565b820191906000526020600020905b815481529060010190602001808311610a5557829003601f168201915b50505050508152602001600282018054600181600116156101000203166002900480601f016020809104026020016040519081016040528092919081815260200182805460018160011615610100020316600290048015610b145780601f10610ae957610100808354040283529160200191610b14565b820191906000526020600020905b815481529060010190602001808311610af757829003601f168201915b50505050508152602001600382018054600181600116156101000203166002900480601f016020809104026020016040519081016040528092919081815260200182805460018160011615610100020316600290048015610bb65780601f10610b8b57610100808354040283529160200191610bb6565b820191906000526020600020905b815481529060010190602001808311610b9957829003601f168201915b50505050508152602001600482018054600181600116156101000203166002900480601f016020809104026020016040519081016040528092919081815260200182805460018160011615610100020316600290048015610c585780601f10610c2d57610100808354040283529160200191610c58565b820191906000526020600020905b815481529060010190602001808311610c3b57829003601f168201915b5050505050815260200160058201548152602001600682018054600181600116156101000203166002900480601f016020809104026020016040519081016040528092919081815260200182805460018160011615610100020316600290048015610d045780601f10610cd957610100808354040283529160200191610d04565b820191906000526020600020905b815481529060010190602001808311610ce757829003601f168201915b5050505050815250509050806000015181602001518260400151836060015184608001518560a001518660c0015185955084945083935082925080905098509850985098509850985098505050919395979092949650565b6000806005600085815260200190815260200160002060009054906101000a900473ffffffffffffffffffffffffffffffffffffffff169150600460008373ffffffffffffffffffffffffffffffffffffffff1673ffffffffffffffffffffffffffffffffffffffff16815260200190815260200160002060008581526020019081526020016000209050600083600381101515610df657fe5b01816006019080546001816001161561010002031660029004610e1a929190610f21565b5050505050565b60e06040519081016040528060008152602001610e3c610fa8565b8152602001610e49610fa8565b8152602001610e56610fa8565b8152602001610e63610fa8565b815260200160008152602001610e77610fa8565b81525090565b828054600181600116156101000203166002900490600052602060002090601f016020900481019282601f10610ebe57805160ff1916838001178555610eec565b82800160010185558215610eec579182015b82811115610eeb578251825591602001919060010190610ed0565b5b509050610ef99190610fbc565b5090565b6040516104a380610fe283390190565b602060405190810160405280600081525090565b828054600181600116156101000203166002900490600052602060002090601f016020900481019282601f10610f5a5780548555610f97565b82800160010185558215610f9757600052602060002091601f016020900482015b82811115610f96578254825591600101919060010190610f7b565b5b509050610fa49190610fbc565b5090565b602060405190810160405280600081525090565b610fde91905b80821115610fda576000816000905550600101610fc2565b5090565b90560060606040526000600160146101000a81548160ff0219169083151502179055506000600160156101000a81548160ff02191690831515021790555060006002556040516020806104a383398101604052808051906020019091905050600073ffffffffffffffffffffffffffffffffffffffff168173ffffffffffffffffffffffffffffffffffffffff161415151561009757600080fd5b336000806101000a81548173ffffffffffffffffffffffffffffffffffffffff021916908373ffffffffffffffffffffffffffffffffffffffff16021790555080600160006101000a81548173ffffffffffffffffffffffffffffffffffffffff021916908373ffffffffffffffffffffffffffffffffffffffff16021790555042600281905550506103748061012f6000396000f30060606040526004361061006d576000357c0100000000000000000000000000000000000000000000000000000000900463ffffffff16806308551a531461007257806353496a75146100c75780637150d8ae146100f4578063812d080d14610149578063c5b0e6fb1461016e575b600080fd5b341561007d57600080fd5b61008561019b565b604051808273ffffffffffffffffffffffffffffffffffffffff1673ffffffffffffffffffffffffffffffffffffffff16815260200191505060405180910390f35b34156100d257600080fd5b6100da6101c1565b604051808215151515815260200191505060405180910390f35b34156100ff57600080fd5b6101076101d4565b604051808273ffffffffffffffffffffffffffffffffffffffff1673ffffffffffffffffffffffffffffffffffffffff16815260200191505060405180910390f35b341561015457600080fd5b61016c600480803515159060200190919050506101f9565b005b341561017957600080fd5b610181610335565b604051808215151515815260200191505060405180910390f35b600160009054906101000a900473ffffffffffffffffffffffffffffffffffffffff1681565b600160149054906101000a900460ff1681565b6000809054906101000a900473ffffffffffffffffffffffffffffffffffffffff1681565b80151561023a576000809054906101000a900473ffffffffffffffffffffffffffffffffffffffff1673ffffffffffffffffffffffffffffffffffffffff16ff5b600160009054906101000a900473ffffffffffffffffffffffffffffffffffffffff1673ffffffffffffffffffffffffffffffffffffffff163373ffffffffffffffffffffffffffffffffffffffff1614156102af5780600160156101000a81548160ff0219169083151502179055506102ca565b80600160146101000a81548160ff0219169083151502179055505b600160159054906101000a900460ff1680156102f25750600160149054906101000a900460ff165b1561033257600160009054906101000a900473ffffffffffffffffffffffffffffffffffffffff1673ffffffffffffffffffffffffffffffffffffffff16ff5b50565b600160159054906101000a900460ff16815600a165627a7a72305820da1ed4fbeb3d6473896d56cf69d64a24b0b7d81fb8a03e023b82564d1366dea90029a165627a7a72305820b69ae94760c542dcefcc9c6516aa0d2a9dc90a851cc918dbc5e9b889eaa9a68a0029",
  "source": "pragma solidity ^0.4.17;\n\n\ncontract Escrow {\n    address public buyer;\n    address public seller;\n    bool public buyerOk = false;\n    bool public sellerOk = false;\n    uint createdAt = 0;\n\n    function Escrow(address _seller) public payable {\n        require(_seller != address(0));\n\n        buyer = msg.sender;\n        seller = _seller;\n        createdAt = now;\n    }\n\n    function confirm(bool _accepted) public {\n        // require(msg.sender == buyer || msg.sender == seller);\n\n        if (!_accepted) {\n            selfdestruct(buyer);\n        } else {\n            if (msg.sender == seller) {\n                sellerOk = _accepted;\n            } else {\n                buyerOk = _accepted;\n            }\n        }\n\n        if (sellerOk && buyerOk) {\n            selfdestruct(seller);\n        }\n    }\n}\n\n\ncontract Store {\n    // PROPERTIES\n    string[3] public productStatus = [\"Unsold\", \"Sold\", \"Buying\"];\n\n    uint public index;\n\n    // Mapping seller to their products - 1 to many\n    mapping (address => mapping (uint => Product)) stores;\n    // Mapping product to seller - 1 to 1\n    mapping (uint => address) productIdInStore;\n\n    struct Product {\n        uint id;\n        string name;\n        string cat;\n        string img;\n        string des;\n        uint price;\n        string status;\n    }\n\n    event EscrowCreated(address newAddress);\n\n    // CONSTRUCTOR\n    function Store() public {\n        index = 0;\n    }\n\n    // FUNCTIONS\n    function addProduct(string _n, string _c, string _i, string _d, uint _p) public {\n        index++;\n        Product memory product = Product(index, _n, _c, _i, _d, _p, productStatus[0]);\n        stores[msg.sender][index] = product;\n        productIdInStore[index] = msg.sender;\n    }\n\n    function getProduct(uint _id) public view returns (uint, string, string, string, string, uint, string) {\n        address store = productIdInStore[_id];\n        Product memory p = stores[store][_id];\n\n        return (p.id, p.name, p.cat, p.img, p.des, p.price, p.status);\n    }\n\n    function getIndex() public view returns (uint) {\n        return index;\n    }\n\n    function changeStatusOfProduct(uint _id, uint _status) public {\n        address store = productIdInStore[_id];\n        Product p = stores[store][_id];\n\n        p.status = productStatus[_status];\n    }\n\n    // ESCROW FUNCTIONS\n    function createEscrow() public payable {\n        address addr = address((new Escrow).value(msg.value)(0x5aeda56215b167893e80b4fe645ba6d5bab767de));\n        EscrowCreated(addr);\n    }\n}",
  "sourcePath": "D:\\Programming\\Blockchain\\Week2\\Homework\\contracts\\Store.sol",
  "compiler": {
    "name": "solc",
    "version": "0.4.19+commit.c4cbbb05.Emscripten.clang"
  },
  "schemaVersion": "2.0.0",
  "updatedAt": "2018-03-25T04:27:28.563Z"
}